{
  "contractName": "TouristRegistry",
  "abi": [
    {
      "inputs": [],
      "stateMutability": "nonpayable",
      "type": "constructor"
    },
    {
      "anonymous": false,
      "inputs": [
        {
          "indexed": true,
          "internalType": "string",
          "name": "touristDbId",
          "type": "string"
        },
        {
          "indexed": false,
          "internalType": "bytes32",
          "name": "dataHash",
          "type": "bytes32"
        }
      ],
      "name": "IdIssued",
      "type": "event"
    },
    {
      "inputs": [],
      "name": "owner",
      "outputs": [
        {
          "internalType": "address",
          "name": "",
          "type": "address"
        }
      ],
      "stateMutability": "view",
      "type": "function",
      "constant": true
    },
    {
      "inputs": [
        {
          "internalType": "string",
          "name": "",
          "type": "string"
        }
      ],
      "name": "touristProofs",
      "outputs": [
        {
          "internalType": "bytes32",
          "name": "",
          "type": "bytes32"
        }
      ],
      "stateMutability": "view",
      "type": "function",
      "constant": true
    },
    {
      "inputs": [
        {
          "internalType": "string",
          "name": "_touristDbId",
          "type": "string"
        },
        {
          "internalType": "bytes32",
          "name": "_dataHash",
          "type": "bytes32"
        }
      ],
      "name": "issueId",
      "outputs": [],
      "stateMutability": "nonpayable",
      "type": "function"
    },
    {
      "inputs": [
        {
          "internalType": "string",
          "name": "_touristDbId",
          "type": "string"
        },
        {
          "internalType": "bytes32",
          "name": "_dataHash",
          "type": "bytes32"
        }
      ],
      "name": "verifyProof",
      "outputs": [
        {
          "internalType": "bool",
          "name": "",
          "type": "bool"
        }
      ],
      "stateMutability": "view",
      "type": "function",
      "constant": true
    }
  ],
  "bytecode": "0x608060405234801561001057600080fd5b50336000806101000a81548173ffffffffffffffffffffffffffffffffffffffff021916908373ffffffffffffffffffffffffffffffffffffffff160217905550610794806100606000396000f3fe608060405234801561001057600080fd5b506004361061004c5760003560e01c80634a02b89014610051578063691aef721461006d5780638da5cb5b1461009d578063c61478aa146100bb575b600080fd5b61006b6004803603810190610066919061045d565b6100eb565b005b610087600480360381019061008291906104b9565b610250565b6040516100949190610511565b60405180910390f35b6100a561027e565b6040516100b2919061056d565b60405180910390f35b6100d560048036038101906100d0919061045d565b6102a2565b6040516100e291906105a3565b60405180910390f35b60008054906101000a900473ffffffffffffffffffffffffffffffffffffffff1673ffffffffffffffffffffffffffffffffffffffff163373ffffffffffffffffffffffffffffffffffffffff1614610179576040517f08c379a000000000000000000000000000000000000000000000000000000000815260040161017090610641565b60405180910390fd5b6000801b60018360405161018d91906106db565b908152602001604051809103902054146101dc576040517f08c379a00000000000000000000000000000000000000000000000000000000081526004016101d39061073e565b60405180910390fd5b806001836040516101ed91906106db565b9081526020016040518091039020819055508160405161020d91906106db565b60405180910390207fcb5098fc73e02a5e799e5a601857b70881e6325b5fd3faa4e5d3f62948bc02e1826040516102449190610511565b60405180910390a25050565b6001818051602081018201805184825260208301602085012081835280955050505050506000915090505481565b60008054906101000a900473ffffffffffffffffffffffffffffffffffffffff1681565b6000816001846040516102b591906106db565b90815260200160405180910390205414905092915050565b6000604051905090565b600080fd5b600080fd5b600080fd5b600080fd5b6000601f19601f8301169050919050565b7f4e487b7100000000000000000000000000000000000000000000000000000000600052604160045260246000fd5b610334826102eb565b810181811067ffffffffffffffff82111715610353576103526102fc565b5b80604052505050565b60006103666102cd565b9050610372828261032b565b919050565b600067ffffffffffffffff821115610392576103916102fc565b5b61039b826102eb565b9050602081019050919050565b82818337600083830152505050565b60006103ca6103c584610377565b61035c565b9050828152602081018484840111156103e6576103e56102e6565b5b6103f18482856103a8565b509392505050565b600082601f83011261040e5761040d6102e1565b5b813561041e8482602086016103b7565b91505092915050565b6000819050919050565b61043a81610427565b811461044557600080fd5b50565b60008135905061045781610431565b92915050565b60008060408385031215610474576104736102d7565b5b600083013567ffffffffffffffff811115610492576104916102dc565b5b61049e858286016103f9565b92505060206104af85828601610448565b9150509250929050565b6000602082840312156104cf576104ce6102d7565b5b600082013567ffffffffffffffff8111156104ed576104ec6102dc565b5b6104f9848285016103f9565b91505092915050565b61050b81610427565b82525050565b60006020820190506105266000830184610502565b92915050565b600073ffffffffffffffffffffffffffffffffffffffff82169050919050565b60006105578261052c565b9050919050565b6105678161054c565b82525050565b6000602082019050610582600083018461055e565b92915050565b60008115159050919050565b61059d81610588565b82525050565b60006020820190506105b86000830184610594565b92915050565b600082825260208201905092915050565b7f4f6e6c7920746865206f776e65722063616e2063616c6c20746869732066756e60008201527f6374696f6e2e0000000000000000000000000000000000000000000000000000602082015250565b600061062b6026836105be565b9150610636826105cf565b604082019050919050565b6000602082019050818103600083015261065a8161061e565b9050919050565b600081519050919050565b600081905092915050565b60005b8381101561069557808201518184015260208101905061067a565b838111156106a4576000848401525b50505050565b60006106b582610661565b6106bf818561066c565b93506106cf818560208601610677565b80840191505092915050565b60006106e782846106aa565b915081905092915050565b7f494420616c7265616479206578697374732e0000000000000000000000000000600082015250565b60006107286012836105be565b9150610733826106f2565b602082019050919050565b600060208201905081810360008301526107578161071b565b905091905056fea2646970667358221220b74fac91d2af4164aeb2f4b53c691ba30c966736c9d177cfaded9e491aea81cc64736f6c634300080a0033",
  "immutableReferences": {},
  "source": "// SPDX-License-Identifier: MIT\npragma solidity >=0.4.22 <0.9.0;\n\ncontract TouristRegistry {\n    address public owner;\n    // Mapping from the tourist's database ID (UUID as string) to the hash of their data\n    mapping(string => bytes32) public touristProofs;\n\n    event IdIssued(string indexed touristDbId, bytes32 dataHash);\n\n    modifier onlyOwner() {\n        require(msg.sender == owner, \"Only the owner can call this function.\");\n        _;\n    }\n\n    constructor() {\n        owner = msg.sender; // The deployer (your backend service) is the owner\n    }\n\n    /**\n     * @dev Issues a new ID by storing a hash of the tourist's verified data.\n     * @param _touristDbId The tourist's primary key from the PostgreSQL database.\n     * @param _dataHash A SHA-256 hash of the tourist's key data.\n     */\n    function issueId(string memory _touristDbId, bytes32 _dataHash) public onlyOwner {\n        require(touristProofs[_touristDbId] == 0, \"ID already exists.\");\n        touristProofs[_touristDbId] = _dataHash;\n        emit IdIssued(_touristDbId, _dataHash);\n    }\n\n    /**\n     * @dev Public function to verify if a given data hash matches the one on-chain.\n     */\n    function verifyProof(string memory _touristDbId, bytes32 _dataHash) public view returns (bool) {\n        return touristProofs[_touristDbId] == _dataHash;\n    }\n}",
  "sourcePath": "/home/risshi/data/sih-2025/tourist-safety-backend/blockchain/contracts/TouristRegistry.sol",
  "compiler": {
    "name": "solc",
    "version": "0.8.10+commit.fc410830.Emscripten.clang"
  },
  "schemaVersion": "3.4.16",
  "updatedAt": "2025-09-19T05:48:51.424Z",
  "networkType": "ethereum",
  "devdoc": {
    "kind": "dev",
    "methods": {
      "issueId(string,bytes32)": {
        "details": "Issues a new ID by storing a hash of the tourist's verified data.",
        "params": {
          "_dataHash": "A SHA-256 hash of the tourist's key data.",
          "_touristDbId": "The tourist's primary key from the PostgreSQL database."
        }
      },
      "verifyProof(string,bytes32)": {
        "details": "Public function to verify if a given data hash matches the one on-chain."
      }
    },
    "version": 1
  },
  "userdoc": {
    "kind": "user",
    "methods": {},
    "version": 1
  }
}